:100000000C9491010C94C2010C94C2010C94C20195
:100010000C94C2010C94C2010C94C2010C94C20154
:100020000C94C2010C94C2010C94C2010C94C20144
:100030000C94C2010C94C2010C94C2010C94C20134
:100040000C94C2010C94C2010C94C2010C94C20124
:100050000C94C2010C94C2010C94C2010C94390896
:100060000C94C2010C94C2010C94C2010C94C20104
:100070000C94C2010C94C2010C94C2010C94C201F4
:100080000C94C2010C94C2010C94C2010C94C201E4
:100090000C94C2010C94C2010C94C2010C94C201D4
:1000A0000C94C2010C94C2010C9483080C94C201FC
:1000B0000C94C2010C94C2010C94C2010C94C201B4
:1000C0000C94C2010C94C2010C94C2010C94C201A4
:1000D0000C94C2010C94C2010C94C2010C94C20194
:1000E0000C94C2010C9447020C9440020C946502DB
:1000F0000C9472020C9432020C944D020C94570230
:100100000C943C020C9438020C945F020C94D803BB
:100110000C9415030C9469020C945F060C945B021A
:100120000C94270B0C9473020C94D5020C943D058F
:100130000C9477020C94E7010C9444020C94510245
:100140000C94A4020C946D020C94D90300002100BD
:10015000240027002A002D00300033000101000098
:10016000040107010A0100002200250028002B00DD
:100170002E003100340002010000050108010B01CE
:10018000000020002300260029002C002F00320050
:100190000001000003010601090105050505070529
:1001A00008080808020202020A0A080804040404F3
:1001B000010101010101010103030303030303031F
:1001C000040707070C0C0C0C0C0C0C0C02020202AE
:1001D00006060606060606060B0B0B0B0B0B0B0B97
:1001E0000102102020080810204010204080020149
:1001F000020108040201010204081020408080402E
:10020000201008040201800402018040201008042C
:1002100002010804020101020408102040800102CA
:1002200004081020408000000A0B02090C0D0E0883
:1002300007030401000000000000000000000000AF
:1002400000000000000000000000000000000000AE
:10025000000012111000000000000000000000006B
:1002600000000000000000000000000030300030FE
:100270003100303200303300303400303500303659
:100280000030370030380030390031300031310073
:100290003132003133003134003135003136003134
:1002A000370031380031390032300032310032321B
:1002B000003233003234003235003236003237003B
:1002C00032380032390033300033310033320033FA
:1002D00033003334003335003336003337003338DE
:1002E000003339003430003431003432003433000C
:1002F00034340034350034360034370034380034B8
:1003000039003530003531003532003533003534B1
:1003100000353500353600353700353800353900C1
:10032000270B11241FBECFEFD1E2DEBFCDBF00E00F
:100330000CBF12E0A0E0B2E0E8E5F7E100E00BBF9F
:1003400002C007900D92A236B107D9F723E0A2E6CA
:10035000B2E001C01D92A43BB207E1F711E0C1E990
:10036000D1E000E006C021970109802FFE010E9424
:10037000A20BC039D10780E00807A9F70E940C0939
:100380000C94AA0B0C94000096E0899FD0011124D4
:10039000A35DBC4F90967C936E935F9791E091968E
:1003A0009C939197E0919A03F0919B03909199030C
:1003B000992339F0309751F0811108C08091490399
:1003C0001994309719F05C968C91FACF0895AF92FA
:1003D000BF92CF92DF92EF92FF920F931F93CF9332
:1003E000DF936C017B018B01040F151FEB015E0194
:1003F000AE18BF08C017D10759F06991D601ED9129
:10040000FC910190F081E02DC6011995892B79F7B7
:10041000C501DF91CF911F910F91FF90EF90DF9079
:10042000CF90BF90AF9008958150823108F05AC0AC
:10043000E82FF0E08827E05EFD4F8F4F0C94A20B71
:1004400040024402320238023C02720247024D026C
:10045000510257025B025F026502690272026D027D
:1004600073027702809180008F77809380000895D7
:10047000809180008F7DF9CF80918000877FF5CFBC
:1004800084B58F7784BD089584B58F7DFBCF80912F
:10049000B0008F778093B00008958091B0008F7D79
:1004A000F9CF809190008F7780939000089580918C
:1004B00090008F7DF9CF80919000877FF5CF80915C
:1004C000A0008F778093A00008958091A0008F7D79
:1004D000F9CF8091A000877FF5CF809120018F77A1
:1004E000809320010895809120018F7DF9CF809124
:1004F0002001877FF5CFCF93DF93282F30E0F901DC
:10050000EA5DFD4F8491F901E052FE4FD491F9016B
:10051000E656FE4FC491CC23A1F081110E94140233
:10052000EC2FF0E0EE0FFF1FE058FE4FA591B491C5
:10053000EC91ED2381E090E009F480E0DF91CF9130
:10054000089580E090E0FACF862F0C947B021F93F1
:10055000CF93DF93282F30E0F901EA5DFD4F8491BE
:10056000F901E052FE4FD491F901E656FE4FC491D5
:10057000CC23A9F0162F81110E941402EC2FF0E079
:10058000EE0FFF1FEA59FE4FA591B4918FB7F89473
:10059000EC91111108C0D095DE23DC938FBFDF9161
:1005A000CF911F910895DE2BF8CF862F642F0C94E6
:1005B000A702CF93DF9390E0FC01E052FE4F24911D
:1005C00086569E4FFC0184918823C9F090E0880FE5
:1005D000991FFC01E45BFE4FA591B491FC01EA591F
:1005E000FE4FC591D49161110DC09FB7F8948C91C5
:1005F000209582238C938881282328839FBFDF91B5
:10060000CF910895623051F49FB7F8943C91822FB6
:10061000809583238C93E8812E2BEFCF8FB7F894AE
:10062000EC912E2B2C938FBFEACF862F642F0C9446
:10063000D9023FB7F8948091220390912303A091AF
:100640002403B091250326B5A89B05C02F3F19F0C0
:100650000196A11DB11D3FBFBA2FA92F982F882742
:10066000BC01CD01620F711D811D911D42E0660F1D
:10067000771F881F991F4A95D1F708958F929F92EF
:10068000AF92BF92CF92DF92EF92FF924B015C014B
:100690000E9419036B017C010E9419036C197D09EA
:1006A0008E099F09683E734081059105A8F321E0FA
:1006B000821A9108A108B10888EEC80E83E0D81EFE
:1006C000E11CF11C81149104A104B10429F7FF90ED
:1006D000EF90DF90CF90BF90AF909F908F90089554
:1006E0002FB7F89460911E0370911F03809120032F
:1006F000909121032FBF08950F931F93CF93DF9302
:10070000C82FD62F86E0C89FF0011124E35DFC4F6F
:1007100011A2878D90A181309105F1F058F08230BF
:100720009105F1F1039709F440C0DF91CF911F913A
:100730000F9108956623C9F361E070E08C2F0E9449
:10074000C4010E94700360938503709386038093B5
:10075000870390938803E9CF0E947003009185037B
:10076000109186032091870330918803AB01BC016F
:10077000401B510B620B730B809197039091980370
:10078000B0E0A0E084179507A607B70748F462E039
:1007900070E08C2FDF91CF911F910F910C94C401C9
:1007A00063E070E0D111C1CFF4CF70E060E0F1CF31
:1007B000089590E080E00895FC0101900020E9F7A1
:1007C0003197AF01481B590BBC018CE993E00C94A5
:1007D000E701CF93DF93EC0160E08E810E94A702D6
:1007E00061E08E810E94A70260E08E810E94A702D4
:1007F0008BE891E00197F1F7DF91CF910895CF92C7
:10080000DF92EF92FF920F931F93CF93DF936C01D0
:100810007C0187E0E80EF11CD0E0C0E0062F10E07C
:10082000B8010C2E02C0759567950A94E2F76170C5
:10083000F70181917F010E94A7022196C430D10562
:1008400079F7C601DF91CF911F910F91FF90EF9043
:10085000DF90CF900C94E903CF92DF92EF92FF925A
:100860000F931F93CF93DF93EC01F62E642F8C81AF
:100870000E94A7028D818F3F19F060E00E94A702BD
:100880000F2D10E08F8584FF25C06E0187E0C80E14
:10089000D11CF12CE12CB8010E2C02C07595679586
:1008A0000A94E2F76170F60181916F010E94A7023C
:1008B000FFEFEF1AFF0A88E0E816F10461F7CE01B6
:1008C000DF91CF911F910F91FF90EF90DF90CF902C
:1008D0000C94E903B80184E0759567958A95E1F772
:1008E000CE010E94FF036F2DCE01DF91CF911F91AA
:1008F0000F91FF90EF90DF90CF900C94FF0340E0BA
:10090000682F8CE993E00C942C0481E00E947F0412
:100910008BE39FE10197F1F70895CF93DF93823046
:1009200029F49091AB0398609093AB038093AF034D
:100930001092B00380E48093B10380E18093B2030E
:1009400080E58093B30361E08091A0030E94D90207
:100950008091A1038F3F19F061E00E94D90261E00C
:100960008091A2030E94D902CCE9D3E09E012C59C8
:1009700033408091AB0384FD0BC084E090E021966E
:100980002817390744F461E08E810E94D902EECF26
:1009900088E090E0F4CF8BE39DE00197F1F760E011
:1009A0008091A0030E94A70260E08091A2030E94B0
:1009B000A7028091A1038F3F19F060E00E94A70277
:1009C0008091AB0384FD34C063E08CE993E00E9426
:1009D000FF03CBE4D6E4CE010197F1F763E08CE9A5
:1009E00093E00E94FF032197F1F763E08CE993E025
:1009F0000E94FF0383E592E00197F1F762E08CE942
:100A000093E00E94FF038091AB0380620E947F0409
:100A100084E08093AC038CE00E947F040E948504F4
:100A200082E08093AD0386E0DF91CF910C947F0448
:100A300080620E947F048BE496E40197F1F7809135
:100A4000AB0380620E947F0483E592E00197F1F797
:100A50008091AB0380620E947F04D5CF9091AF0359
:100A6000691710F06FEF690FE62FF0E0E456FC4FC6
:100A70009489890F80680C947F0441E00E942C04C3
:100A800081E090E00895CF93DF93EC01FC01649145
:100A900041E08CE993E00E942C04FE0131966491C0
:100AA00041E08CE993E0DF91CF910C942C040F93FB
:100AB0001F93CF93DF930E94700300911A0310914C
:100AC0001B03012E000C220B330B601B710B820BDE
:100AD000930B693E73408105910540F080910002BF
:100AE000882349F01092190310921803DF91CF91D7
:100AF0001F910F91089580911803909119032091EF
:100B00002B0330912C0321503109821793070CF4E9
:100B100057C0109219031092180361E08EE00E94F2
:100B20002E05809118039091190301969C01220FC4
:100B3000331F820F931F84599D4F0E94430586E403
:100B400092E00E94DC0360E088E00E942E05809124
:100B5000180390911903EC01CC0FDD1FC80FD91FAA
:100B6000CC59DD4F8A8113E0819FC0011124845943
:100B70009D4F0E9443056AE38CE993E00E943D0586
:100B80008981819FC001112484599D4F0E94430592
:100B90006AE38CE993E00E943D058881819FC00152
:100BA000112484599D4F0E94430586E492E00E94DF
:100BB000DC030E94700370931B0360931A0396CFAB
:100BC00001969093190380931803A7CF0F931F9357
:100BD000CF93DF930E94700300911A0310911B03BF
:100BE000012E000C220B330B601B710B820B930B3D
:100BF000693E73408105910540F080910002882391
:100C000049F01092190310921803DF91CF911F91B0
:100C10000F910895809118039091190320912B034F
:100C200030912C0321503109821793070CF441C0F5
:100C3000109219031092180360E088E00E942E05BC
:100C40008091180390911903EC01CC0FDD1FC80FA0
:100C5000D91FCC59DD4F8A8113E0819FC001112437
:100C600084599D4F0E9443056AE38CE993E00E94FA
:100C70003D058981819FC001112484599D4F0E94A7
:100C800043056AE38CE993E00E943D058881819FDA
:100C9000C001112484599D4F0E94430586E492E0CF
:100CA0000E94DC030E94700370931B0360931A037D
:100CB000ACCF01969093190380931803BDCFCF93C7
:100CC000DF9320914C0330914D032130310509F021
:100CD000CDC1C82F0E948504C43431F58091010232
:100CE00091E089278093010261E080E00E942E0557
:100CF00061E088E00E94A70282E592E00E94DC03A6
:100D00006CE271E080E090E00E943E0360E088E0E9
:100D10000E94A70261E080E00E942E0586E492E036
:100D2000DF91CF910C94DC03C33481F481E0809394
:100D30001C031092010261E080E00E942E0561E038
:100D400088E00E94A70280E392E0D8CFC13409F086
:100D500041C080912703811120C080912603811119
:100D6000D7C01092000281E0809327030E94700395
:100D700070931B0360931A031092190310921803C7
:100D80000E94E60561E080E00E942E0561E088E0B7
:100D90000E94A70282E392E0B1CF81E0809300023B
:100DA0001092270361E080E00E942E0586E492E025
:100DB0000E94DC0361E088E00E94A7026CE271E01F
:100DC00080E090E00E943E0360E088E0DF91CF91F8
:100DD0000C94A702C23431F580912603811198C08A
:100DE00080912703811194C01092000281E08093CA
:100DF00026030E94700370931B0360931A031092E2
:100E00001903109218030E94570561E080E00E94C8
:100E10002E0584E392E00E94DC0361E088E00E94FA
:100E2000A7026ECFC33209F05CC080912603811106
:100E30006FC080912B0390912C038C3391058CF122
:100E400061E080E00E942E0586E392E00E94DC03D0
:100E500061E088E00E94A7026CE271E080E090E02F
:100E60000E943E0360E088E00E94A70264E670E012
:100E700080E090E00E943E0361E088E00E94A702CB
:100E80006CE271E080E090E00E943E0360E088E068
:100E90000E94A70261E080E00E942E058FE392E0AD
:100EA0003FCFFC01EE0FFF1FE80FF91FEC59FD4F7C
:100EB000209128033091290340912A032083318314
:100EC0004283019690932C0380932B0361E080E092
:100ED0000E942E0561E088E00E94A70288E492E06B
:100EE0000DCFCA32A9F410922C0310922B0361E0AB
:100EF00080E00E942E0561E088E00E94A7028AE45B
:100F000092E00E94DC0368E572E080E090E0FCCEB5
:100F100061E088E00E94A7026CE271E080E090E06E
:100F20000E943E0360E088E00E94A702C33251F1B4
:100F30002CF08FEB8C0F823008F498C08091620205
:100F4000909163024AE0489F9001499F300D11241F
:100F50008C2FCC0F990BC097E901C80FD91FD093E4
:100F60006302C093620261E080E00E942E05CE0120
:100F7000880F991F8C0F9D1F84599D4FDF91CF9132
:100F80000C944305C0916202D091630261E01C168B
:100F90001D060CF058C080912B0390912C038C17E8
:100FA0009D070CF450C088E00E94A7026CE271E03B
:100FB00080E090E00E943E0360E088E00E94A7028B
:100FC00064E670E080E090E00E943E0361E088E02B
:100FD0000E94A7026CE271E080E090E00E943E0374
:100FE00060E088E00E94A7022197FE01EE0FFF1F3C
:100FF000EC0FFD1FEC59FD4F828180932A03818104
:10100000809329038081809328031092260381E036
:1010100080930002109263021092620261E080E00D
:101020000E942E058CE492E00E94DC036CE271E0E9
:1010300080E090E00E943E0361E080E00E942E0587
:1010400080E492E06DCE80E00E942E0584E592E07F
:101050000E94DC0364E670E080E090E00E943E03C2
:101060000E9485041092630210926202DF91CF9178
:1010700008951F920F920FB60F9211242F933F9352
:101080008F939F93AF93BF9380911E0390911F0303
:10109000A0912003B091210330911D0323E0230F81
:1010A0002D3758F50196A11DB11D20931D03809386
:1010B0001E0390931F03A0932003B09321038091FC
:1010C000220390912303A0912403B091250301965C
:1010D000A11DB11D8093220390932303A0932403A9
:1010E000B0932503BF91AF919F918F913F912F9125
:1010F0000F900FBE0F901F90189526E8230F0296B1
:10110000A11DB11DD2CF1F920F920FB60F921124C5
:101110000BB60F922F933F934F935F936F937F93F1
:101120008F939F93AF93BF93CF93EF93FF93809150
:101130001C03882341F010922A0310922903109275
:10114000280310921C0380910102882341F08091B2
:1011500028038F5F8C3309F448C080932803809163
:101160000002882371F160E088E00E942E058091E2
:101170002A03C3E08C9FC001112484599D4F0E9413
:1011800043056AE38CE993E00E943D0580912903C1
:101190008C9FC001112484599D4F0E9443056AE32E
:1011A0008CE993E00E943D05809128038C9FC0014B
:1011B000112484599D4F0E94430586E492E00E94C9
:1011C000DC03FF91EF91CF91BF91AF919F918F91F0
:1011D0007F916F915F914F913F912F910F900BBE37
:1011E0000F900FBE0F901F901895109228038091BA
:1011F00029038F5F8C3319F080932903B0CF1092AD
:10120000290380912A038F5F883119F080932A0384
:10121000A6CF10922A03A3CF789484B5826084BDB0
:1012200084B5816084BD85B5826085BD85B58160EA
:1012300085BD80916E00816080936E001092810068
:101240008091810082608093810080918100816023
:1012500080938100809180008160809380008091E4
:10126000B10084608093B1008091B0008160809370
:10127000B0008091910082608093910080919100F4
:1012800081608093910080919000816080939000B4
:101290008091A10082608093A1008091A100816073
:1012A0008093A1008091A00081608093A000809134
:1012B00021018260809321018091210181608093CE
:1012C00021018091200181608093200180917A002A
:1012D000846080937A0080917A00826080937A00A3
:1012E00080917A00816080937A0080917A00806892
:1012F00080937A001092C100F8941092A0008DE0C3
:101300008093A10082E08093720088E09DE3909337
:10131000A9008093A80082E00E948D04789461E087
:1013200088E00E94D90260E088E00E94A7028FE571
:1013300096E090939B0380939A03812C912C540107
:10134000839422242A94322C70E0672E70E0772E4A
:1013500060E080E00E942E0580912B0390912C0389
:10136000181619068CF48CE592E00E94DC0320919B
:101370002B0330912C03C901880F991F820F931FF3
:1013800084599D4F0E94430580912903882309F1C8
:101390008091280381111DC061E00E942E058EE519
:1013A00092E00E94DC0361E088E00E94A7026CE208
:1013B00071E080E090E00E943E0360E088E00E94DF
:1013C000A70261E080E00E942E0584E492E00E9482
:1013D000DC0380912703882371F10E94E60561E018
:1013E00080E00E942E0581E0809399030E947003A3
:1013F0000091890310918A0320918B0330918C0313
:10140000AB01BC01401B510B620B730B8091950328
:1014100090919603B0E0A0E0C0E084179507A6077E
:10142000B70780F0109299036114710409F490CF0A
:101430000E9400008DCF80912603882381F20E94B4
:101440005705CDCF80919303C81760F4E0918F03C7
:10145000F0919003EC0FF11D62E080810E94D902AF
:10146000CF5FF0CF512C80919403581608F05FC0E5
:10147000052D10E0E0919103F0919203E00FF11F30
:1014800061E080810E94D902E0919103F091920382
:10149000E00FF11F60E080810E94A702D501C40126
:1014A000052C04C0880F991FAA1FBB1F0A94D2F7EE
:1014B0006C017C01E094F094412C809193034816D8
:1014C000F8F4C42DD0E0E0918F03F0919003EC0F7D
:1014D000FD1F80810E947B022496CC0FDD1FC35D1F
:1014E000DC4F892B41F4888199818C299D2999832E
:1014F00088834394E2CF888199818E219F21F7CF01
:10150000E0919103F0919203E00FF11F61E080817F
:101510000E94A7028091910390919203080F191FD6
:1015200060E0F80180810E94D90253949CCF0DE2C3
:1015300013E0E8018F8D98A1892B21F41C8E3E8E3B
:101540002D8E19A2269689E693E08C179D0791F7B8
:10155000F12C80919303F81608F053C0E12CCF2CA6
:10156000D12CCC0CDD1CF601EB5CFC4F6F01209103
:101570009403E21608F043C0F601608171810E2CDD
:1015800002C0769567950A94E2F7F29E90011124C5
:101590002E0D311DEDE2F3E080E0458D568D2417D0
:1015A000350709F452C08F5F36968A30B1F760FF75
:1015B00024C0EDE2F3E090E080E0448D411118C0DA
:1015C000E0918D03F0918E03E20FF31F408156E00E
:1015D000589FF001599FF00D1124E35DFC4F448F9B
:1015E000368F258F10A2178E61E00E947C0305C004
:1015F000019636968A30910501F7E394B8CFF394BB
:10160000A8CFF12CF80181A18111F82E0A5F1F4F9C
:101610000C171D07B9F70E9470036093890370933C
:101620008A0380938B0390938C03FF2009F4FACEF6
:1016300080914E03882309F4F5CE80914C0390915C
:101640004D03019709F0EECEEFCE6170CECF109230
:101650002F031092330310923203109234038AE264
:1016600092E090932E0380932D03E9E4F3E010823F
:10167000148213821582369683E0E538F807B9F7AD
:1016800086E092E09093900380938F0382E092E053
:10169000909392038093910384E0809393038093CB
:1016A00094038AE092E090938E0380938D038AE006
:1016B00090E0909396038093950384EF91E090934C
:1016C00098038093970310929B0310929A031092B1
:1016D000890310928A0310928B0310928C0310924C
:1016E000990310929F0310929E038EE192E09093D3
:1016F0009D0380939C0388E28093A00387E28093FC
:10170000A10386E28093A2038EE18093A3038FE17D
:101710008093A40380E28093A50381E28093A603D3
:1017200082E28093A70383E28093A80384E28093FC
:10173000A90385E28093AA0380E18093AB0381E053
:101740000C948D04EE0FFF1F881F8BBF0790F6913E
:08175000E02D1994F894FFCF7D
:1017580001011A1B1C1D1617181931323341343573
:101768003642373839432A302344000000003D050B
:10177800E701D903D803000000001503D502A4022D
:101788004300410042004944584552524F520020FC
:10179800202020202020200023002A0055504441EA
:1017A80054454400494E56414C4944004D004D496A
:0217B8004E00E1
:00000001FF
