:020000040000FA
:100000000C94B3000C94DB000C94DB000C94DB002C
:100010000C94DB000C94DB000C94DB000C94DB00F4
:100020000C94DB000C94DB000C94DB000C94DB00E4
:100030000C94DB000C94DB000C94DB000C94DB00D4
:100040000C94E4020C94DB000C94B2020C948C022D
:100050000C942E030C94DB000C94DB000C94DB005E
:100060000C94DB000C94DB0000407A10F35A00A0E3
:10007000724E18090010A5D4E80000E87648170071
:1000800000E40B54020000CA9A3B000000E1F505B1
:10009000000080969800000040420F000000A086FB
:1000A00001000000102700000000E803000000002D
:1000B0006400000000000A000000000001000000D1
:1000C00000002C76D888DC674F0823DFC1DFAE59EB
:1000D000E1B1B796E5E3E453C63AE651997696E87E
:1000E000E6C28426EB898C9B62ED407C6FFCEFBC02
:1000F0009C9F40F2BAA56FA5F490055A2AF75C932D
:100100006B6CF9676DC11BFCE0E40D47FEF520E662
:10011000B500D0ED902E0300943577050080841E45
:10012000080000204E0A000000C80C333333330FA0
:10013000986E12831141EF8D2114893BE65516CF3D
:10014000FEE6DB18D1844B381BF77C1D901DA4BB49
:10015000E424203284725E228100C9F124ECA1E5FE
:100160003D273903120611241FBECFEFD8E0DEBFB2
:10017000CDBF21E0ACE1B1E001C01D92AF3CB207C0
:10018000E1F711E0A0E0B1E0EEE4F7E102C0059094
:100190000D92AC31B107D9F710E0C2EBD0E004C04A
:1001A0002197FE010E94A209C13BD107C9F70E9415
:1001B0009F030C949A0B0C9400000895AF92BF9289
:1001C000CF92DF92EF92FF920F931F93CF93DF9323
:1001D0006C017B018B01040F151FEB015E01AE1852
:1001E000BF08C017D10759F06991D601ED91FC9174
:1001F0000190F081E02DC6010995892B79F7C501A1
:10020000DF91CF911F910F91FF90EF90DF90CF90F2
:10021000BF90AF900895FC01538D448D252F30E0A1
:10022000842F90E0821B930B541710F0CF96089503
:1002300001970895FC01918D828D981761F0A28D30
:10024000AE0FBF2FB11D5D968C91928D9F5F9F73F6
:10025000928F90E008958FEF9FEF0895FC01918DAC
:10026000828D981731F0828DE80FF11D858D90E019
:1002700008958FEF9FEF0895FC01918D228D892FB6
:1002800090E0805C9F4F821B91098F73992708959E
:1002900088E291E00E943C0121E0892B09F420E0F2
:1002A000822F089580E090E0892B29F00E94480178
:1002B00081110C9400000895FC01A48DA80FB92FA2
:1002C000B11DA35ABF4F2C91848D90E001968F737E
:1002D0009927848FA689B7892C93A089B1898C919D
:1002E000837080648C93938D848D981306C00288EC
:1002F000F389E02D80818F7D80830895EF92FF92B6
:100300000F931F93CF93DF93EC0181E0888F9B8D38
:100310008C8D98131AC0E889F989808185FF15C0F2
:100320009FB7F894EE89FF896083E889F989808115
:100330008370806480839FBF81E090E0DF91CF91E4
:100340001F910F91FF90EF900895F62E0B8D10E006
:100350000F5F1F4F0F731127E02E8C8D8E110CC075
:100360000FB607FCFACFE889F989808185FFF5CFC0
:10037000CE010E945C01F1CFEB8DEC0FFD2FF11D42
:10038000E35AFF4FF0829FB7F8940B8FEA89FB89FD
:1003900080818062CFCFCF93DF93EC01888D88235B
:1003A000B9F0AA89BB89E889F9898C9185FD03C0D8
:1003B000808186FD0DC00FB607FCF7CF8C9185FFBD
:1003C000F2CF808185FFEDCFCE010E945C01E9CFA5
:1003D000DF91CF9108953FB7F894809121019091DA
:1003E0002201A0912301B091240126B5A89B05C04C
:1003F0002F3F19F00196A11DB11D3FBFBA2FA92FA4
:10040000982F8827BC01CD01620F711D811D911DA0
:1004100042E0660F771F881F991F4A95D1F708950C
:10042000CF92DF92EF92FF920E94EB016B017C0171
:100430000E94EB016C197D098E099F09683E73408B
:1004400081059105A8F3FF90EF90DF90CF9008957C
:10045000CF93DF93FC0130E020E090E080E061E0AA
:1004600070E0AFE0B0E0AB01022E02C0440F551FB8
:100470000A94E2F74E235F23452B61F0AD01421B46
:10048000530BEB0102C0CC0FDD1F4A95E2F7AE0122
:100490008C2B952B2F5F3F4F2031310521F7DF91BA
:1004A000CF910895CF93DF93EC01888199810097D4
:1004B00011F00E94440A198218821D821C821B823C
:1004C0001A82DF91CF9108950F931F93CF93DF93FB
:1004D000EC0188819981009759F02A813B81261788
:1004E000370730F081E0DF91CF911F910F91089590
:1004F0008B016F5F7F4F0E94CD0A009759F099835F
:1005000088831B830A832C813D81232B59F7FC01AF
:100510001082E8CF80E0E7CF1F920F920FB60F92C4
:1005200011242F933F934F935F936F937F938F93F8
:100530009F93AF93BF93EF93FF9388E291E00E9464
:100540005C01FF91EF91BF91AF919F918F917F914E
:100550006F915F914F913F912F910F900FBE0F9030
:100560001F9018951F920F920FB60F9211242F9380
:100570008F939F93EF93FF93E0913801F0913901AE
:100580008081E0913E01F0913F0182FD1BC090818E
:10059000809141018F5F8F7320914201821741F05A
:1005A000E0914101F0E0E85DFE4F958F80934101BD
:1005B000FF91EF919F918F912F910F900FBE0F9010
:1005C0001F9018958081F4CF1F920F920FB60F9253
:1005D00011242F933F938F939F93AF93BF93809159
:1005E0001D0190911E01A0911F01B0912001309139
:1005F0001C0123E0230F2D3758F50196A11DB11DD5
:1006000020931C0180931D0190931E01A0931F0154
:10061000B09320018091210190912201A0912301AA
:10062000B09124010196A11DB11D809321019093E9
:100630002201A0932301B0932401BF91AF919F9118
:100640008F913F912F910F900FBE0F901F90189593
:1006500026E8230F0296A11DB11DD2CF1F920F9243
:100660000FB60F9211245A980F900FBE0F901F9043
:10067000189510922B0110922A0188EE93E0A0E0C9
:10068000B0E080932C0190932D01A0932E01B093A4
:100690002F018CE091E0909329018093280185EC53
:1006A00090E0909335018093340184EC90E0909336
:1006B00037018093360180EC90E09093390180936C
:1006C000380181EC90E090933B0180933A0182ECF9
:1006D00090E090933D0180933C0186EC90E09093F4
:1006E0003F0180933E01109241011092420110920D
:1006F0004301109244011092C6011092C50110925C
:10070000C8011092C7011092CA011092C90170E08D
:1007100060E085EC91E00E946402811104C085ECE8
:1007200091E00C9452021092CA011092C9016AE140
:1007300071E08091C5019091C6010C94930BCF9309
:10074000DF93CDB7DEB7AB970FB6F894DEBF0FBE21
:10075000CDBF789484B5826084BD84B5816084BD4A
:1007600085B5826085BD85B5816085BD80916E004F
:10077000816080936E001092810080918100826080
:1007800080938100809181008160809381008091BD
:1007900080008160809380008091B10084608093AC
:1007A000B1008091B00081608093B00080917A00A8
:1007B000846080937A0080917A00826080937A00CE
:1007C00080917A00816080937A0080917A008068BD
:1007D00080937A001092C10087E08AB988EF8BB9C4
:1007E00083E080930001E0913801F091390182E0CB
:1007F0008083E0913401F09135011082E09136015F
:10080000F09137018FEC808310924001E0913C0120
:10081000F0913D0186E08083E0913A01F0913B0147
:10082000808180618083E0913A01F0913B01808179
:1008300088608083E0913A01F0913B01808180687B
:100840008083E0913A01F0913B0180818F7D80832C
:100850008091C10084648093C1008091C000816058
:100860008093C0000E9410028AEE8093270188E2E4
:1008700091E00E943C01892BB1F088E291E00E9456
:100880001A01909101019923C9F0909127018913D0
:100890000AC01092010181E0809326018091C0007E
:1008A0008E7F8093C00020E030E0232B01F30E9474
:1008B00048018823E1F20E940000D9CF90912601DF
:1008C000992389F310922601813B69F781E0809397
:1008D00001015A9A80917A00806480937A000E9484
:1008E00010028091000120E4829FC00111248093B6
:1008F0007C0080917A00806480937A0080917A00F5
:1009000086FDFCCF80917800609179002DB63EB6CF
:100910001BA21AA21DA21CA21FA21EA2762F682F24
:10092000072E000C880B990B0E94720826E839EC00
:1009300044ED5DE30E94AD088E010F5F1F4F22E082
:1009400044E00E941B067C01009779F0FC010190B5
:100950000020E9F731978F01081B190BB801CE0170
:1009600082960E946402811180C0CE0182960E940C
:1009700052028091C5019091C601009709F47FC091
:100980006AA17BA16115710509F477C04091C70187
:100990005091C8012EA13FA14217530708F46DC022
:1009A0000E94930B8EA19FA19093CA018093C901CD
:1009B0001FA21EA28AA19BA1009711F00E94440AC7
:1009C0006090C9017090CA0123013FEF431A530A96
:1009D000C30102966DB77EB7681B790B0FB6F8940A
:1009E0007EBF0FBE6DBF0DB71EB70F5F1F4FC20199
:1009F000F80197FF5BC02091C5013091C60190E0DE
:100A000080E04AE95AE86AE77AE6AAE5BAE4EAE366
:100A1000FE2EFAE2EF2EEAE1DE2EFAE0CF2E681685
:100A2000790609F480C0F901E80FF91F2115310595
:100A300021F410922501E5E2F1E0E081EE52EC3084
:100A400008F03BC00E2E000CFF0BE75DFA4F0C9434
:100A5000A2098C055D0559055F05640569056E05EC
:100A6000730578057D05820587051FA30EA3B701D1
:100A70008AA19BA10E94930B7CCF0E94440A8AA169
:100A80009BA19093C6018093C5018CA19DA19093D9
:100A9000C8018093C7018EA19FA19093CA01809342
:100AA000C9011BA21AA21DA21CA282CF11920197FA
:100AB000A0CFF801E80FF91FC0820196B0CFF8016E
:100AC000E80FF91FD082F9CFF801E80FF91FE08293
:100AD000F4CFF801E80FF91FF082EFCFF801E80F2B
:100AE000F91FB083EACFF801E80FF91FA083E5CF23
:100AF000F801E80FF91F7083E0CFF801E80FF91F44
:100B00006083DBCFF801E80FF91F5083D6CFF801DF
:100B1000E80FF91F4083D1CFF801E80FF91FBB247C
:100B2000BA94B082CACF2DB73EB7261937090FB68F
:100B3000F8943EBF0FBE2DBF8DB79EB701966C01D6
:100B400078014C01860C971CD801FC01E815F905C9
:100B500031F54C0132E0830E911C5CEEA52E59E874
:100B6000B52EC814D90409F440C0F60181916F0173
:100B700090E00E94280289A718A628A539A5A226D8
:100B8000B32688E090E09501AA0CBB1C37FF04C097
:100B900031E2A32630E1B3260197A9F7E2CFAD9069
:100BA00050E040E030E020E0B12CB501022E02C060
:100BB000759567950A94E2F760FF10C067E070E0F2
:100BC000621B730B7BA76AA761E070E00AA402C0F6
:100BD000660F771F0A94E2F7462B572B2F5F3F4F84
:100BE0002830310511F74193B1CFC5010E94280289
:100BF000F801E60DF71D9083F801E40DF51D8083E3
:100C0000095F1F4FF70161917F0188E291E00E9427
:100C10007E010E151F05B1F70FB6F8943EBE0FBE4C
:100C20002DBE41CE8091C5019091C601009711F073
:100C30000C94440A0895EF920F931F93CF93DF9380
:100C4000E80134E047FD34E1042E000C550B57FF5A
:100C500003C0519541955109E32E022F242FAE0177
:100C60000E943906CE01DF91CF911F910F91EF9035
:100C70000895A9E0B0E0EFE3F6E00C9471096A0191
:100C8000F22EB02E102FFBE3AF2EA01608F41BE3BC
:100C90001F5F012F27E0AE014F5F5F4F0E94980753
:100CA000BC018981982F9970913009F43FC09BE273
:100CB000E1FC04C09E2D9170E0FC3AC05E2D5071A5
:100CC000E82FE87083FF46C084E0911101C083E003
:100CD000EF2DE81B8F1508F0E0E0D6018E2F20E203
:100CE000552351F1992329F0D6019C93C601019611
:100CF0006C0196012D5F3F4FE2FE24C08EE4D601C9
:100D00008C9391E411969C93119712968C93D90130
:100D10008E2F90E281111BC0E20FF32FF11D108284
:100D20008EEF9FEF2996ECE00C948D099DE2C6CFE3
:100D300090E2C4CF2D9381508111FCCFCE0ED11CF7
:100D4000E0E0D0CF8EE6D6018C9391E6DBCF9D9389
:100D50008150E0CF482F447082FF3DC084E0911164
:100D600001C083E08F1510F4EF2DE81BD6018E2F04
:100D700020E2552309F1992329F0D6019C93C6015D
:100D800001966C0196012D5F3F4FE2FE1BC089E486
:100D9000D6018C938EE411968C93119786E412966B
:100DA0008C93D9018E2F90E2882309F4B5CF9D93BF
:100DB0008150FACF2D9381508111FCCFCE0ED11CE2
:100DC000E0E0D9CF89E6D6018C938EE611968C931C
:100DD000119786E6E4CF9B0177FF02C030E020E068
:100DE000A1E0B0E0911102C0B0E0A0E0F9013196BD
:100DF000AE0FBF1F8B2C912CBB2009F461C0540196
:100E0000EFEFAE1ABE0AAA0DBB1DFA161B0619F0AB
:100E100014F04F2D4A1B511188C0E3FC59C07601D4
:100E2000A42FB0E2A1114FC0C40ED11C992309F424
:100E30005BC040E0D6011196F60190836D01552309
:100E400009F448C0012F060F9A81582F507184FF72
:100E500003C0913309F4015010160CF047C009305B
:100E600008F008E0EEE2FE2E5B01A01AB108850151
:100E70009194819491082F3F320729F4D601FC9276
:100E8000F60131966F016217730794F10217130789
:100E90007CF5DB01A21BB30BAA24A394B12CAC0EEE
:100EA000BD1EAA0DBB1D11968C9121503109D60192
:100EB000119628153905F4F0F60180836D01DBCF1A
:100EC000B12CA12CA0CFF701B1937F01A150AACFE3
:100ED0009111B0CFD601942F50E302C05D93915091
:100EE0009111FCCFC40ED11C40E0ACCF01E0BACFD1
:100EF00080E3DBCF6217730731F4963388F49533C0
:100F000011F4552369F0F6018083FD01842F90E2EE
:100F1000811108C0A40FB11D1C9290E080E002CFA7
:100F200081E3F1CF91938150F3CF911183CF8ACF99
:100F3000283008F027E03327DA01990F311D87FDAB
:100F4000916000966105710539F432602E5F3D9322
:100F500030E32A95E1F708959F3F30F0803871051E
:100F6000610509F03C5F3C5F3D93913008F080687B
:100F7000911DDF93CF931F930F93FF92EF92192F41
:100F8000987F9695E92F96959695E90FFF27EE5352
:100F9000FF4F99273327EE24FF24A701E70105908F
:100FA0000894079428F4360FE71EF81E491F511DB8
:100FB000660F771F881F991F0694A1F70590079465
:100FC00028F4E70EF81E491F561FC11D770F881F12
:100FD000991F661F0694A1F70590079428F4F80E50
:100FE000491F561FC71FD11D880F991F661F771FE6
:100FF0000694A1F70590079420F4490F561FC71FC8
:10100000D81F990F661F771F881F0694A9F7849130
:101010001095177041F0D695C79557954795F79459
:10102000E7941A95C1F7E8E6F0E0689415901591F9
:1010300035916591959105907FE27395E118F10ADC
:10104000430B560BC90BD009C0F7E10CF11E431F2F
:10105000561FC91FD01D7EF4703311F48A95E6CF58
:10106000E894015030F0080F0AF40027021708F442
:10107000202F2395022F7A3328F079E37D932A9548
:10108000E9F710C07D932A9589F6069497956795A0
:10109000379517951794E118F10A430B560BC90BB6
:1010A000D00998F023957E9173957A3308F070E318
:1010B0007C932013B8F77E9170617D9330F0839517
:1010C00071E37D9370E32A95E1F71124EF90FF908F
:1010D0000F911F91CF91DF91992787FD90950895EA
:1010E000E89409C097FB3EF49095809570956195C2
:1010F0007F4F8F4F9F4F9923A9F0F92F96E9BB2778
:101100009395F695879577956795B795F111F8CFF3
:10111000FAF4BB0F11F460FF1BC06F5F7F4F8F4F5E
:101120009F4F16C0882311F096E911C0772321F054
:101130009EE8872F762F05C0662371F096E8862FEC
:1011400070E060E02AF09A95660F771F881FDAF743
:10115000880F9695879597F908950E94C0080C947A
:1011600031090E94230938F00E942A0920F09523B2
:1011700011F00C941A090C94200911240C9465099F
:101180000E94420970F3959FC1F3950F50E0551FDF
:10119000629FF001729FBB27F00DB11D639FAA27CC
:1011A000F00DB11DAA1F649F6627B00DA11D661F1B
:1011B000829F2227B00DA11D621F739FB00DA11D3C
:1011C000621F839FA00D611D221F749F3327A00DF6
:1011D000611D231F849F600D211D822F762F6A2F92
:1011E00011249F5750409AF0F1F088234AF0EE0FF7
:1011F000FF1FBB1F661F771F881F91505040A9F724
:101200009E3F510580F00C941A090C9465095F3FCC
:10121000E4F3983ED4F3869577956795B795F7955F
:10122000E7959F5FC1F7FE2B880F911D96958795D7
:1012300097F9089597F99F6780E870E060E0089556
:101240009FEF80EC089500240A94161617061806DE
:101250000906089500240A941216130614060506BA
:101260000895092E0394000C11F4882352F0BB0F4B
:1012700040F4BF2B11F460FF04C06F5F7F4F8F4FAE
:101280009F4F089557FD9058440F551F59F05F3FE9
:1012900071F04795880F97FB991F61F09F3F79F098
:1012A00087950895121613061406551FF2CF46951A
:1012B000F1DF08C0161617061806991FF1CF86959C
:1012C0007105610508940895E894BB276627772780
:1012D000CB0197F908952F923F924F925F926F92B0
:1012E0007F928F929F92AF92BF92CF92DF92EF92B6
:1012F000FF920F931F93CF93DF93CDB7DEB7CA1B37
:10130000DB0B0FB6F894DEBF0FBECDBF09942A8861
:10131000398848885F846E847D848C849B84AA8409
:10132000B984C884DF80EE80FD800C811B81AA8196
:10133000B981CE0FD11D0FB6F894DEBF0FBECDBF61
:10134000ED010895EE0FFF1F0590F491E02D099433
:101350000F931F93CF93DF938230910510F482E0B7
:1013600090E0E091CD01F091CE0130E020E0B0E0DE
:10137000A0E0309799F42115310509F44AC0281BE3
:10138000390B24303105D8F58A819B8161157105AF
:1013900089F1FB0193838283FE0111C04081518159
:1013A0000281138148175907E0F04817590799F44B
:1013B000109761F012960C93129713961C93329625
:1013C000CF01DF91CF911F910F9108950093CD012F
:1013D0001093CE01F4CF2115310551F04217530778
:1013E00038F0A901DB019A01BD01DF01F801C1CF8D
:1013F000EF01F9CF9093CE018093CD01CDCFFE01C7
:10140000E20FF31F8193919322503109398328838E
:10141000D7CF2091CB013091CC01232B41F42091E7
:101420000401309105013093CC012093CB01209130
:101430000201309103012115310541F42DB73EB76A
:101440004091060150910701241B350BE091CB011F
:10145000F091CC01E217F307A0F42E1B3F0B2817E5
:10146000390778F0AC014E5F5F4F2417350748F01D
:101470004E0F5F1F5093CC014093CB01819391930A
:101480009FCFF0E0E0E09CCFCF93DF930097E9F0AF
:10149000FC01329713821282A091CD01B091CE014E
:1014A000ED0130E020E01097A1F420813181820F1E
:1014B000931F2091CB013091CC012817390709F0F7
:1014C00061C0F093CC01E093CB01DF91CF910895FF
:1014D000EA01CE17DF07E8F54A815B819E014115DD
:1014E0005105B1F7E901FB83EA8349915991C40F92
:1014F000D51FEC17FD0761F4808191810296840F5E
:10150000951FE90199838883828193819B838A83D4
:10151000F0E0E0E012968D919C9113970097B9F559
:101520002D913C911197CD010296820F931F20912E
:10153000CB013091CC012817390739F6309751F596
:101540001092CE011092CD01B093CC01A093CB01AB
:10155000BCCFD383C28340815181840F951FC817AC
:10156000D90761F44E5F5F4F88819981480F591FF9
:10157000518340838A819B81938382832115310526
:1015800009F0B0CFF093CE01E093CD019ECFFD01E5
:10159000DC01C0CF13821282D7CFB0E0A0E0E3ED30
:1015A000FAE00C946D098C01009751F4CB010E9474
:1015B000A8098C01C801CDB7DEB7E0E10C94890918
:1015C000FC01E60FF71F9C0122503109E217F307D7
:1015D00008F49DC0D901CD91DC911197C617D707AA
:1015E00098F0C530D10530F3CE01049786179707E0
:1015F00008F3C61BD70B2297C193D1936D937C93AD
:10160000CF010E94440AD6CF5B01AC1ABD0A4C013F
:101610008C0E9D1EA091CD01B091CE01512C412C7C
:10162000F12CE12C109731F58091CB019091CC01F8
:101630008815990509F05CC04616570608F058C091
:101640008091020190910301009741F48DB79EB7FC
:101650004091060150910701841B950BE817F9078B
:1016600008F055C0F093CC01E093CB01F9017183F0
:101670006083A0CF8D919C91119712966C901297D8
:1016800013967C901397A815B90559F56C0142E0A3
:10169000C40ED11CCA14DB0420F1AC014A195B0949
:1016A000DA011296159780F062827382518340832B
:1016B000D9016D937C93E114F10471F0D701139675
:1016C000FC93EE93129776CF22968C0F9D1FF90113
:1016D00091838083F301EFCFF093CE01E093CD01AE
:1016E00069CF4816590608F42C017D01D3019ACF21
:1016F000CB010E94A8097C01009749F0AE01B80116
:101700000E948A0BC8010E94440A870153CF10E04F
:1017100000E050CFFB01DC0102C001900D9241506E
:101720005040D8F70895FB01DC0101900D92002094
:10173000E1F7089510E0C2EBD0E004C0FE010E9482
:10174000A2092196C33BD107C9F7F894FFCF010145
:101750000000CF018000000000007E01DE000B01D0
:0A176000CB013C011A012E0100002C
:107E0000112484B714BE81FFF0D085E080938100F7
:107E100082E08093C00088E18093C10086E0809377
:107E2000C20080E18093C4008EE0C9D0259A86E02C
:107E300020E33CEF91E0309385002093840096BBD3
:107E4000B09BFECF1D9AA8958150A9F7CC24DD24C4
:107E500088248394B5E0AB2EA1E19A2EF3E0BF2EE7
:107E6000A2D0813461F49FD0082FAFD0023811F036
:107E7000013811F484E001C083E08DD089C08234E0
:107E800011F484E103C0853419F485E0A6D080C0E4
:107E9000853579F488D0E82EFF2485D0082F10E0AE
:107EA000102F00270E291F29000F111F8ED06801E7
:107EB0006FC0863521F484E090D080E0DECF843638
:107EC00009F040C070D06FD0082F6DD080E0C81688
:107ED00080E7D80618F4F601B7BEE895C0E0D1E017
:107EE00062D089930C17E1F7F0E0CF16F0E7DF06D8
:107EF00018F0F601B7BEE89568D007B600FCFDCFD4
:107F0000A601A0E0B1E02C9130E011968C91119780
:107F100090E0982F8827822B932B1296FA010C0160
:107F200087BEE89511244E5F5F4FF1E0A038BF0790
:107F300051F7F601A7BEE89507B600FCFDCF97BE46
:107F4000E89526C08437B1F42ED02DD0F82E2BD052
:107F50003CD0F601EF2C8F010F5F1F4F84911BD097
:107F6000EA94F801C1F70894C11CD11CFA94CF0C13
:107F7000D11C0EC0853739F428D08EE10CD085E9AC
:107F80000AD08FE07ACF813511F488E018D01DD067
:107F900080E101D065CF982F8091C00085FFFCCF94
:107FA0009093C60008958091C00087FFFCCF809118
:107FB000C00084FD01C0A8958091C6000895E0E648
:107FC000F0E098E1908380830895EDDF803219F02E
:107FD00088E0F5DFFFCF84E1DECF1F93182FE3DFCA
:107FE0001150E9F7F2DF1F91089580E0E8DFEE27F6
:047FF000FF270994CA
:027FFE00040479
:00000001FF
