:020000020000FC
:040000000C94B200AA
:0400A8000C94710043
:1000E0001895F89430FD04C040FD0DC07894189523
:1000F00052B95138D9F05234D9F05432D9F058317C
:10010000D9F05030D9F061BB6038D1F06032D1F015
:100110006830D1F06230D1F06034D1F06031D1F08C
:100120006430D1F06130D1F06030D1F052E4DCCFF6
:1001300054E2DACF58E1D8CF50E0D6CF30E0D4CF78
:1001400060E2D4CF68E0D2CF62E0D0CF60E4CECF1F
:1001500060E1CCCF64E0CACF61E0C8CF60E0C6CF39
:1001600040E0C4CFF89401E20EBF0FEF0DBF0DE0E9
:1001700010E01093A0000093A10003E81EE110938B
:10018000A9000093A80002E00093720000E01FEFB6
:1001900011B902B910BB01BB01E010E004B915B9F7
:1001A00000E015E007B918B900E07894309B03D05F
:1001B000329B05D0FBCF31E051E805D0089541E0F6
:1001C00060E801D00895289A02D02898089500E0A8
:0E01D00014EC29E0015010402040E1F70895A2
:00000001FF
